:020000020000FC
:1000000006C023016745AB89EFCDDCFE98BA08E056
:100010000EBF0FEF0DBFE0E3F1E001E4019309E54E
:100020000193E2E3F1E007E3019303E501938FD14C
:100030009FEF9AB994B928984FD002D034D05BC0C2
:1000400093E30FD049D092E30CD046D098E209D088
:1000500043D09CE006D091E004D03ED096E001D0A1
:100060000895E92FE07FEBB92998289A2DD0289898
:100070002ED0E92FE295E07FEBB9289A25D0289879
:1000800026D00895E92FE07FEBB9299A289A1CD051
:1000900028981DD0E92FE295E07FEBB9289A14D07B
:1000A000289815D00895952DEDDF1BD0942DEADF0B
:1000B00018D0972DE7DF15D0962DE4DF12D0CCE0D5
:1000C00010D0CA95E9F708950000000008954AE5A8
:1000D000FBDF4A95E9F70895D8E2F9DFDA95E9F709
:1000E00008954FEFDFEFE4E1EA95F1F7DA95D9F7FC
:1000F0004A95C1F7089500000024112422243324D6
:10010000442455246624772488249924AA24BB24D3
:10011000CC24DD24EE24FF240027112722273327B7
:10012000442755276627772788279927AA27BB279B
:10013000CC27DD27EE27FF277FD19FEF9AB994B90F
:1001400028984FD002D034D05BC093E30FD049D071
:1001500092E30CD046D098E209D043D09CE006D080
:1001600091E004D03ED096E001D00895E92FE07FE1
:10017000EBB92998289A2DD028982ED0E92FE2950E
:10018000E07FEBB9289A25D0289826D00895E92F4A
:10019000E07FEBB9299A289A1CD028981DD0E92F26
:1001A000E295E07FEBB9289A14D0289815D00895ED
:1001B000952DEDDF1BD0942DEADF18D0972DE7DFCA
:1001C00015D0962DE4DF12D0CCE010D0CA95E9F717
:1001D00008950000000008954AE5FBDF4A95E9F71D
:1001E0000895D8E2F9DFDA95E9F708954FEFDFEFE8
:1001F000E4E1EA95F1F7DA95D9F74A95C1F7089560
:10020000000000241124222433244424552466248D
:10021000772488249924AA24BB24CC24DD24EE242A
:10022000FF24002711272227332744275527662735
:10023000772788279927AA27BB27CC27DD27EE27F2
:10024000FF276BD19FEF9AB994B928984FD002D06D
:1002500034D05BC093E30FD049D092E30CD046D0AA
:1002600098E209D043D09CE006D091E004D03ED083
:1002700096E001D00895E92FE07FEBB92998289AFC
:100280002DD028982ED0E92FE295E07FEBB9289A5F
:1002900025D0289826D00895E92FE07FEBB9299A38
:1002A000289A1CD028981DD0E92FE295E07FEBB961
:1002B000289A14D0289815D00895952DEDDF1BD0DD
:1002C000942DEADF18D0972DE7DF15D0962DE4DFC7
:1002D00012D0CCE010D0CA95E9F7089500000000D4
:1002E00008954AE5FBDF4A95E9F70895D8E2F9DF7A
:1002F000DA95E9F708954FEFDFEFE4E1EA95F1F7DA
:10030000DA95D9F74A95C1F7089500000024112421
:1003100022243324442455246624772488249924D1
:10032000AA24BB24CC24DD24EE24FF24002711279B
:100330002227332744275527662777278827992799
:10034000AA27BB27CC27DD27EE27FF27FFCFE2E038
:10035000F0E0C4E2D1E00CE0159119930A95E1F7C1
:10036000E0E0F1E002E111EE27EB1193219337E396
:10037000130F3EE9231F0A95C1F706E3F02E00276D
:1003800011272227332744275527662777278827D1
:100390009927E0E0F1E0E00FF11DE00FF11D608131
:1003A0007181620F731F640F751FA3E0660F771FC3
:1003B000EFB6E0FA60F9AA95C9F7EE24619371935C
:1003C000262F372FC4E2D1E0C10FD11DC10FD11D9F
:1003D00088819981820F931F840F951FA22FA40FEC
:1003E000AF70AA2351F0880F991FEFB6E0FA80F999
:1003F000710DAA95F6CF0C94C901AA27EE24899312
:100400009993482F592F0395023108F0002713952F
:10041000163008F01127FA9471F72E2E3F2EE0E3E4
:10042000F1E041905190E2E3F1E061907190E22DB2
:10043000F32D2224332408950F931F932F933F937A
:100440004F935F936F937F938F939F93EF93FF935C
:10045000E0E3F1E001911191E2E3F1E021913191CA
:10046000E0E0F1E041915191040F151F419151914C
:10047000240F351F61E0EF93FF93E0E0F1E0462F9A
:10048000440F440FE40FF11D02271327722F7F70D2
:10049000772341F0000F111FEFB6E0FA00F9EE24C8
:1004A0007A95F6CF41915191040F151F20273127DE
:1004B000702F7F70772329F0220F331F211D7A952B
:1004C000F9CF41915191240F351FFF91EF91639521
:1004D000693088F2E0E3F1E001931193E2E3F1E0A7
:1004E000219331932E2E3F2EE0E3F1E04190519085
:1004F000E2E3F1E061907190E22DF32D22243324A8
:10050000FF91EF919F918F917F916F915F914F91AB
:100510003F912F911F910F9108950F931F932F9348
:100520003F934F935F936F937F938F939F93EF933B
:10053000FF93E0E3F1E001911191E2E3F1E0219119
:10054000319168E0EF93FF93E0E0F1E0462F440F34
:10055000440F3296E40FF11D41915191241B350B4C
:10056000702F7F70772331F03695279508F4306827
:100570007A95F8CF20273127E0E0F1E0462F440FAD
:10058000440FE40FF11D41915191041B150B722F83
:100590007F70772331F01695079508F410687A95E7
:1005A000F8CF02271327FF91EF916A9559F6E0E003
:1005B000F1E041915191041B150B41915191241B84
:1005C000350BE0E3F1E001931193E2E3F1E02193D5
:1005D00031932E2E3F2EE0E3F1E041905190E2E383
:1005E000F1E061907190E22DF32D22243324FF91EC
:1005F000EF919F918F917F916F915F914F913F917B
:080600002F911F910F91089545
:00000001FF
